:020000040800F2
:1000000000280020B51C0008451C00084B1C0008F7
:10001000511C0008571C00085D1C0008000000006F
:10002000000000000000000000000000631C000849
:100030006F1C0008000000007B1C0008871C0008E3
:10004000FD1C0008FD1C0008FD1C0008FD1C00082C
:10005000FD1C0008FD1C0008FD1C0008FD1C00081C
:10006000FD1C0008FD1C0008FD1C0008FD1C00080C
:10007000FD1C0008FD1C0008FD1C0008FD1C0008FC
:10008000FD1C0008FD1C0008FD1C0008FD1C0008EC
:10009000FD1C0008FD1C0008FD1C0008FD1C0008DC
:1000A000FD1C0008FD1C0008FD1C0008FD1C0008CC
:1000B000951C0008FD1C000800000000FD1C000845
:1000C000FD1C00080000000000000000FD1C0008EE
:1000D00000000000FD1C0008FD1C000800000000DE
:1000E000FD1C0008FD1C0008FD1C000800000000AD
:1000F0000000000000000000000000000000000000
:0C01000000000000000000005FF808F1A3
:1001100010B5054C237833B9044B13B10448AFF341
:1001200000800123237010BDC000002000000000EB
:100130002442000808B5034B1BB103490348AFF341
:10014000008008BD00000000C40000202442000818
:1001500081F0004102E000BF83F0004330B54FEA78
:1001600041044FEA430594EA050F08BF90EA020FE5
:100170001FBF54EA000C55EA020C7FEA645C7FEA78
:10018000655C00F0E2804FEA5454D4EB5555B8BF9B
:100190006D420CDD2C4480EA020281EA030382EA0C
:1001A000000083EA010180EA020281EA0303362D9E
:1001B00088BF30BD11F0004F4FEA01314FF4801C71
:1001C0004CEA113102D0404261EB410113F0004F83
:1001D0004FEA03334CEA133302D0524263EB43033A
:1001E00094EA050F00F0A780A4F10104D5F1200ED8
:1001F0000DDB02FA0EFC22FA05F2801841F1000133
:1002000003FA0EF2801843FA05F359410EE0A5F106
:1002100020050EF1200E012A03FA0EFC28BF4CF037
:10022000020C43FA05F3C01851EBE37101F00045ED
:1002300007D54FF0000EDCF1000C7EEB00006EEBFA
:100240000101B1F5801F1BD3B1F5001F0CD3490884
:100250005FEA30004FEA3C0C04F101044FEA4452DB
:1002600012F5800F80F09A80BCF1004F08BF5FEA62
:10027000500C50F1000041EB045141EA050130BD42
:100280005FEA4C0C404141EB0101013C28BFB1F554
:10029000801FE9D291F0000F04BF01460020B1FA9F
:1002A00081F308BF2033A3F10B03B3F120020CDA72
:1002B0000C3208DD02F1140CC2F10C0201FA0CF050
:1002C00021FA02F10CE002F11402D8BFC2F1200CB5
:1002D00001FA02F120FA0CFCDCBF41EA0C0190406B
:1002E000E41AA2BF01EB0451294330BD6FEA0404B4
:1002F0001F3C1CDA0C340EDC04F11404C4F120029F
:1003000020FA04F001FA02F340EA030021FA04F3B0
:1003100045EA030130BDC4F10C04C4F1200220FA07
:1003200002F001FA04F340EA0300294630BD21FA45
:1003300004F0294630BD94F0000F83F4801306BF0B
:1003400081F480110134013D4EE77FEA645C18BFFF
:100350007FEA655C29D094EA050F08BF90EA020F96
:1003600005D054EA000C04BF1946104630BD91EA8E
:10037000030F1EBF0021002030BD5FEA545C05D191
:100380004000494128BF41F0004130BD14F58004D0
:100390003CBF01F5801130BD01F0004545F0FE4144
:1003A00041F470014FF0000030BD7FEA645C1ABF79
:1003B000194610467FEA655C1CBF0B46024650EAB0
:1003C000013406BF52EA033591EA030F41F40021DC
:1003D00030BD00BF90F0000F04BF0021704730B562
:1003E0004FF4806404F132044FF000054FF0000137
:1003F00050E700BF90F0000F04BF0021704730B5F8
:100400004FF4806404F1320410F0004548BF4042CC
:100410004FF000013EE700BF42004FEAE2014FEA21
:1004200031014FEA02701FBF12F07F4393F07F4FFC
:1004300081F06051704732F07F4208BF704793F0FF
:100440007F4F04BF41F40021704730B54FF4607412
:1004500001F0004521F000411CE700BF50EA010215
:1004600008BF704730B54FF000050AE050EA0102BE
:1004700008BF704730B511F0004502D5404261EB2E
:1004800041014FF4806404F132045FEA915C3FF46F
:10049000D8AE4FF003025FEADC0C18BF03325FEA0C
:1004A000DC0C18BF033202EBDC02C2F1200300FABD
:1004B00003FC20FA02F001FA03FE40EA0E0021FAE2
:1004C00002F11444BDE600BF70B54FF0FF0C4CF4D0
:1004D000E06C1CEA11541DBF1CEA135594EA0C0F82
:1004E00095EA0C0F00F0DEF82C4481EA030621EABD
:1004F0004C5123EA4C5350EA013518BF52EA0335F8
:1005000041F4801143F4801338D0A0FB02CE4FF0A9
:100510000005E1FB02E506F00042E0FB03E54FF0D9
:100520000006E1FB03569CF0000F18BF4EF0010ED1
:10053000A4F1FF04B6F5007F64F5407404D25FEACD
:100540004E0E6D4146EB060642EAC62141EA555180
:100550004FEAC52040EA5E504FEACE2EB4F1FD0CC2
:1005600088BFBCF5E06F1ED8BEF1004F08BF5FEA40
:10057000500E50F1000041EB045170BD06F00046F2
:1005800046EA010140EA020081EA0301B4EB5C049F
:10059000C2BFD4EB0C0541EA045170BD41F4801197
:1005A0004FF0000E013C00F3AB8014F1360FDEBFBC
:1005B000002001F0004170BDC4F10004203C35DA98
:1005C0000C341BDC04F11404C4F1200500FA05F31B
:1005D00020FA04F001FA05F240EA020001F00042BC
:1005E00021F0004110EBD37021FA04F642EB060132
:1005F0005EEA430E08BF20EAD37070BDC4F10C045C
:10060000C4F1200500FA04F320FA05F001FA04F21F
:1006100040EA020001F0004110EBD37041F100010B
:100620005EEA430E08BF20EAD37070BDC4F1200516
:1006300000FA05F24EEA020E20FA04F301FA05F27E
:1006400043EA020321FA04F001F0004121FA04F226
:1006500020EA020000EBD3705EEA430E08BF20EAF6
:10066000D37070BD94F0000F0FD101F00046400030
:1006700041EB010111F4801F08BF013CF7D041EAB2
:10068000060195F0000F18BF704703F000465200B6
:1006900043EB030313F4801F08BF013DF7D043EA87
:1006A0000603704794EA0C0F0CEA135518BF95EA3D
:1006B0000C0F0CD050EA410618BF52EA4306D1D1C4
:1006C00081EA030101F000414FF0000070BD50EAE3
:1006D000410606BF1046194652EA430619D094EA6D
:1006E0000C0F02D150EA013613D195EA0C0F05D157
:1006F00052EA03361CBF104619460AD181EA0301AB
:1007000001F0004141F0FE4141F470014FF0000062
:1007100070BD41F0FE4141F4780170BD70B54FF0FD
:10072000FF0C4CF4E06C1CEA11541DBF1CEA13557D
:1007300094EA0C0F95EA0C0F00F0A7F8A4EB05045F
:1007400081EA030E52EA03354FEA013100F0888056
:100750004FEA03334FF0805545EA131343EA12631F
:100760004FEA022245EA111545EA10654FEA0026D4
:100770000EF000419D4208BF964244F1FD0404F58D
:10078000407402D25B084FEA3202B61A65EB0305E9
:100790005B084FEA32024FF480104FF4002CB6EBA6
:1007A000020E75EB030E22BFB61A754640EA0C0026
:1007B0005B084FEA3202B6EB020E75EB030E22BF66
:1007C000B61A754640EA5C005B084FEA3202B6EBA7
:1007D000020E75EB030E22BFB61A754640EA9C0066
:1007E0005B084FEA3202B6EB020E75EB030E22BF36
:1007F000B61A754640EADC0055EA060E18D04FEAF4
:10080000051545EA16754FEA06164FEAC30343EA93
:1008100052734FEAC2025FEA1C1CC0D111F4801F60
:100820000BD141EA00014FF000004FF0004CB6E759
:1008300011F4801F04BF01430020B4F1FD0C88BFF8
:10084000BCF5E06F3FF6AFAEB5EB030C04BFB6EB03
:10085000020C5FEA500C50F1000041EB045170BDF6
:100860000EF0004E4EEA113114EB5C04C2BFD4EB23
:100870000C0541EA045170BD41F480114FF0000EA7
:10088000013C90E645EA060E8DE60CEA135594EA23
:100890000C0F08BF95EA0C0F3FF43BAF94EA0C0F26
:1008A0000AD150EA01347FF434AF95EA0C0F7FF49B
:1008B00025AF104619462CE795EA0C0F06D152EAEF
:1008C00003353FF4FDAE1046194622E750EA4106D3
:1008D00018BF52EA43067FF4C5AE50EA41047FF4E4
:1008E0000DAF52EA43057FF4EBAE12E74FF0FF3C49
:1008F00006E000BF4FF0010C02E000BF4FF0010C1A
:100900004DF804CD4FEA410C7FEA6C5C4FEA430C92
:1009100018BF7FEA6C5C1BD001B050EA410C0CBFE1
:1009200052EA430C91EA030F02BF90EA020F002043
:10093000704710F1000F91EA030F58BF994208BFAA
:1009400090422CBFD8176FEAE37040F00100704767
:100950004FEA410C7FEA6C5C02D150EA013C07D1BE
:100960004FEA430C7FEA6C5CD6D152EA033CD3D009
:100970005DF8040B704700BF8446104662468C4603
:100980001946634600E000BF01B5FFF7B7FF002836
:1009900048BF10F1000F01BD4DF808EDFFF7F4FF5F
:1009A0000CBF012000205DF808FB00BF4DF808EDEA
:1009B000FFF7EAFF34BF012000205DF808FB00BF0D
:1009C0004DF808EDFFF7E0FF94BF012000205DF82F
:1009D00008FB00BF4DF808EDFFF7CEFF94BF0120E4
:1009E00000205DF808FB00BF4DF808EDFFF7C4FFDD
:1009F00034BF012000205DF808FB00BF4FEA410C26
:100A00007FEA6C5C02D150EA013C0AD14FEA430C08
:100A10007FEA6C5C02D152EA033C02D14FF0000045
:100A200070474FF0010070474FEA410212F5001283
:100A300015D211D56FF47873B3EB625212D94FEA25
:100A4000C12343F0004343EA505311F0004F23FA0F
:100A500002F018BF404270474FF00000704750EA64
:100A6000013005D111F0004008BF6FF00040704721
:100A70004FF00000704700BF80B582B000AF002388
:100A80007B607DE0434A7B6813441978424A7B6867
:100A900013440A461A70414A7B68134419783D4A48
:100AA0007B6813440A461A703D4A7B6832F813305B
:100AB00019463C4801F00EFC03461946374A7B684C
:100AC00013440A461A70354A7B6813441A78314930
:100AD0007B680B441B789A424FD1304A7B681344A1
:100AE0001A782D497B680B441B789A4245D12E4ACF
:100AF0007B6813441A7829497B680B441B789A4217
:100B000019D0264A7B6813441978274A7B68134416
:100B10000A461A70244A7B6813441B78002B2CD198
:100B2000224A7B68134401221A70214A7B6864219F
:100B300022F8131021E01C4A7B6813441B78002B19
:100B40001BD11B4A7B6832F913309BB2013B9BB22D
:100B500019B2174A7B6822F81310154A7B6832F9DC
:100B60001330002B09DC114A7B68134401221A70F0
:100B70000F4A7B68322122F813107B6801337B60B7
:100B80007B68032B7FF77EAF00BF00BF0837BD46F1
:100B900080BD00BFE4000020E8000020E00000204D
:100BA00000000020000C0140DC000020EC000020D0
:100BB000F000002080B483B000AF78607B68002B29
:100BC00002DB7B68032B01DD00230DE0094A7B6813
:100BD00013441B78012B06D1064A7B68134400227C
:100BE0001A70012300E0002318460C37BD4680BC74
:100BF000704700BFEC00002080B500AF01F080F826
:100C000000F016F800F09CF800F04EF8074801F0EC
:100C1000BDFF00F033FC00F059FD00F004F900F0D6
:100C200055FC00F0EFFD00F099F9F8E724010020F1
:100C300080B590B000AF07F11803282200211846B4
:100C400002F05AFB3B1D00221A605A609A60DA607B
:100C50001A610223BB610123BB621023FB620023E4
:100C60007B6307F11803184601F064FB0346002B71
:100C700001D000F0D3F80F237B600023BB6000237A
:100C8000FB6000233B6100237B613B1D0021184674
:100C900001F0D0FD0346002B01D000F0BFF800BFEB
:100CA0004037BD4680BD000080B586B000AF07F17B
:100CB000080300221A605A609A60DA603B460022FC
:100CC0001A605A601D4B4FF080421A601B4B41F670
:100CD0003F725A60194B00229A60184B0922DA6061
:100CE000164B00221A61154B00229A61134801F03D
:100CF000FDFE0346002B01D000F090F84FF4805326
:100D0000BB6007F1080319460C4802F07BF8034664
:100D1000002B01D000F082F800233B6000237B60B1
:100D20003B461946054802F053FA0346002B01D012
:100D300000F074F800BF1837BD4680BD24010020C4
:100D400080B586B000AF07F1080300221A605A6030
:100D50009A60DA60284B9B69274A43F00803936145
:100D6000254B9B6903F008037B607B68224B9B69E2
:100D7000214A43F0040393611F4B9B6903F0040372
:100D80003B603B68002243F6F0711C4801F0B9FA61
:100D900000224FF47F411A4801F0B3FA0F23BB60E1
:100DA0000023FB6001233B6107F108031946134848
:100DB00001F016F943F6F073BB600123FB600123D9
:100DC0003B6102237B6107F1080319460B4801F0E0
:100DD00007F94FF47F43BB600123FB6001233B61B4
:100DE00002237B6107F108031946054801F0F8F872
:100DF00000BF1837BD4680BD00100240000C014006
:100E00000008014080B582B000AF786000F090FE2D
:100E1000FFF732FE00BF0837BD4680BD80B400AF8B
:100E200072B600BFFEE780B500AF00F081FB002086
:100E300000F002F800BF80BD80B582B000AF03466D
:100E4000FB71FB79032B7AD801A252F823F000BF83
:100E5000610E0008B50E0008E30E0008110F00082F
:100E60000121642000F044FE374B1B68642202FB22
:100E700003F30221184600F03BFE344B1B6864224A
:100E800002FB03F30321184600F032FE2E4B1B68D1
:100E90002F4A13602D4B1B682D4A536000210120FF
:100EA00000F062FB0121032000F05EFB294B0022D1
:100EB0001A7045E00121192000F01AFE244B02228D
:100EC0001A60214B1B68224A53600021002000F069
:100ED0004BFB0121002000F047FB1E4B01221A7042
:100EE0002EE00121192000F003FE194B03221A60A5
:100EF000194B1B68164A53600021002000F034FB98
:100F00000121002000F030FB124B02221A7017E082
:100F10000121192000F0ECFD0D4B04221A600B4B4F
:100F20001B680B4A53600021002000F01DFB0121CB
:100F3000002000F019FB074B03221A7000E000BFED
:100F400000BF0837BD4680BD0C0100201401002001
:100F5000FC000020F80000201001002080B500AF48
:100F6000B24B1B78032B00F2878101A252F823F0C9
:100F7000810F0008E11000089D110008FD11000814
:100F8000AB4B5B78012B1BD10121642000F0B0FD3D
:100F9000A84B1B68013BA74A1360A64B1B68002B9C
:100FA00002DAA44B00221A60A24B5B68013BA14A03
:100FB0005360A04B5B68002B02DA9E4B00225A6004
:100FC0009B4B9B78012B40D19B4B1B78032B2AD04A
:100FD000032B3CDC012B02D0022B12D037E0974BC5
:100FE0001B68642202FB03F30221184600F080FD17
:100FF000924B1B688F4A13600021032000F0B4FA63
:1010000026E08F4B1B68642202FB03F30221184683
:1010100000F06EFD8A4B1B68864A13600021012098
:1010200000F0A2FA14E0874B1B68642202FB03F372
:101030000221184600F05CFD824B1B687D4A13605C
:101040000021022000F090FA02E000BF00E000BFA3
:10105000774BDB78012B40D1774B5B78032B2AD081
:10106000032B3CDC012B02D0022B12D037E0734B58
:101070001B68642202FB03F30321184600F038FDCD
:101080006E4B1B686B4A53600121032000F06CFA21
:1010900026E06B4B1B68642202FB03F30321184616
:1010A00000F026FD664B1B68624A53600121012057
:1010B00000F05AFA14E0634B1B68642202FB03F34E
:1010C0000321184600F014FD5E4B1B68594A53601B
:1010D0000121022000F048FA02E000BF00E000BF5A
:1010E000534B5B78012B20D1534B1B78002B02D044
:1010F000012B0DD01AE00121192000F0F9FC00218C
:10110000012000F031FA0121012000F02DFA0DE05C
:101110000121192000F0ECFC0021002000F024FA4D
:101120000121002000F020FA00E000BF0020FFF7BE
:1011300041FD0346002B02D00220FFF77DFE012077
:10114000FFF738FD0346002B0BD03A4B5B680133A9
:10115000384A5360374B5B68632B02DD354B002206
:101160005A600220FFF726FD0346002B0BD0314BBF
:101170005B68013B2F4A53602E4B5B68002B02DA01
:101180002C4B63225A600320FFF714FD0346002B0B
:1011900074D0284B5B682A4A13606FE0244B5B785D
:1011A000012B20D1244B1B78002B02D0022B0DD019
:1011B0001AE00121192000F09BFC0021022000F020
:1011C000D3F90121022000F0CFF90DE0012119200F
:1011D00000F08EFC0021002000F0C6F90121002063
:1011E00000F0C2F900E000BF0020FFF7E3FC034677
:1011F000002B45D00320FFF71FFE41E00C4B5B782E
:10120000012B2ED10C4B1B78002B02D0032B1BD0B3
:1012100028E00121192000F06BFC0021032000F0E0
:10122000A3F90121032000F09FF91BE0F800002042
:101230006C010020FC000020180100201401002097
:101240000C010020100100200121192000F050FCA9
:101250000021002000F088F90121002000F084F92D
:1012600000E000BF0020FFF7A5FC0346002B09D0DB
:101270000020FFF7E1FD05E000BF04E000BF02E051
:1012800000BF00E000BF00BF80BD00BF90B585B0CB
:1012900000AF786039607B68002BC0F2D7807B6834
:1012A000012B00F3D3803B68002BC0F2D1803B6858
:1012B000012B00F3CD80694A7B6852F823403B68DC
:1012C000C3F101031846FFF795F802460B464FF0AD
:1012D0000000634902F018F802460B461046194612
:1012E000FFF7A2FB034694FBF3F25E4B83FB021372
:1012F0009910D317C91A0B469B000B445B00D31AF5
:10130000FB60FB68002B11DBFB68092B0EDC564AE7
:10131000FB6832F813301A02544B1A61544AFB68C6
:1013200032F813301A06514B1A6109E04E4B9B8A72
:101330001A024E4B1A614E4B9B8A1A064B4B1A618E
:101340007B685A003B681344032B00F2838001A2A0
:1013500052F823F0651300089F130008D913000802
:1013600013140008434B1B8800221946424800F022
:10137000C8FF404B5B88012219463F4800F0C1FF7F
:101380003C4B9B88012219463B4800F0BAFF394B81
:10139000DB8801221946384800F0B3FF5BE0354B8B
:1013A0001B8801221946344800F0ABFF314B5B88A3
:1013B00000221946304800F0A4FF2E4B9B880122E2
:1013C00019462D4800F09DFF2A4BDB880122194663
:1013D000294800F096FF3EE0264B1B880122194663
:1013E000254800F08EFF234B5B88012219462248D6
:1013F00000F087FF1F4B9B88002219461E4800F013
:1014000080FF1C4BDB88012219461B4800F079FF46
:1014100021E0184B1B8801221946174800F071FF84
:10142000144B5B8801221946134800F06AFF114BE8
:101430009B8801221946104800F063FF0D4BDB88A2
:10144000002219460C4800F05CFF04E000BF02E0F7
:1014500000BF00E000BF1437BD4690BDFC00002077
:1014600000002440676666662800002000080140EE
:101470001000002008000020000C014080B500AFE3
:101480000021192000F034FB0E4B1B880122194665
:101490000D4800F036FF0B4B5B88012219460A48C5
:1014A00000F02FFF074B9B8801221946064800F0E9
:1014B00028FF044BDB8801221946034800F021FF76
:1014C00000BF80BD08000020000C014080B500AFC7
:1014D000144B1B68144A126811461846FFF7D6FED3
:1014E000124B1B78012B1BD10021192000F000FBAF
:1014F0000D4B1B6801330C4A13600B4B1B68012B0F
:1015000007DD094B00221A60064B1B680133054AB0
:101510001360044B1B68012B02DD024B00221A6092
:1015200000BF80BD04010020080100206C010020E4
:1015300080B500AF094B05221A60094B02221A60E0
:10154000084B03221A600021002000F00DF8012151
:10155000002000F009F800BF80BD00BF0C01002092
:10156000100100201401002080B582B000AF0346B6
:101570003960FB713B68002BC0F298803B68012BFF
:1015800000F39480FB79032B00F2928001A252F8C1
:1015900023F000BFA5150008E7150008291600086C
:1015A0006B160008444A3B6832F813300122194692
:1015B000424800F0A6FE424A3B6832F8133001224E
:1015C00019463E4800F09DFE3E4A3B6832F8133013
:1015D00001221946394800F094FE3B4A3B68134407
:1015E00000221A7065E0344A3B6832F8133000225A
:1015F0001946324800F085FE314A3B6832F8133014
:10160000012219462D4800F07CFE2E4A3B6832F834
:10161000133001221946294800F073FE2A4A3B681C
:10162000134401221A7044E0234A3B6832F8133015
:1016300001221946214800F064FE214A3B6832F835
:101640001330002219461D4800F05BFE1D4A3B681E
:1016500032F8133001221946184800F052FE1A4A97
:101660003B68134402221A7023E0134A3B6832F8A5
:10167000133001221946114800F043FE104A3B681E
:1016800032F81330012219460C4800F03AFE0D4A98
:101690003B6832F8133000221946084800F031FE4A
:1016A000094A3B68134403221A7002E000BF00E0BD
:1016B00000BF0837BD4680BD40000020000C01403F
:1016C00044000020480000201801002080B500AF31
:1016D000FFF72EFF002000F003F800BF80BD0000E0
:1016E00080B582B000AF0346FB71FB79032B7AD83B
:1016F00001A252F823F000BF091700085D17000887
:101700008B170008B91700080121642000F0F0F9D8
:10171000374B1B68642202FB03F30221184600F0DA
:10172000E7F9344B1B68642202FB03F303211846DC
:1017300000F0DEF92E4B1B682F4A13602D4B1B68FF
:101740002D4A536000210120FFF70EFF01210320E5
:10175000FFF70AFF294B00221A7045E001211920EA
:1017600000F0C6F9244B02221A60214B1B68224A62
:10177000536000210020FFF7F7FE01210020FFF752
:10178000F3FE1E4B01221A702EE00121192000F0F9
:10179000AFF9194B03221A60194B1B68164A5360A4
:1017A00000210020FFF7E0FE01210020FFF7DCFE12
:1017B000124B02221A7017E00121192000F098F94B
:1017C0000D4B04221A600B4B1B680B4A536000211F
:1017D0000020FFF7C9FE01210020FFF7C5FE074BDF
:1017E00003221A7000E000BF00BF0837BD4680BD6D
:1017F0000C01002014010020FC0000201A01002030
:101800001001002080B500AFB24B1B78032B00F213
:10181000568101A252F823F0291800089F190008E8
:10182000FF1900085F1A0008AB4B5B78012B1BD136
:101830000121642000F05CF9A84B1B68013BA74A1A
:101840001360A64B1B68002B02DAA44B00221A601F
:10185000A24B5B68013BA14A5360A04B5B68002B25
:1018600002DA9E4B00225A609B4B9B78012B40D1A1
:101870009B4B1B78032B2AD0032B3CDC012B02D083
:10188000022B12D037E0974B1B68642202FB03F354
:101890000221184600F02CF9924B1B688F4A136006
:1018A00000210320FFF760FE26E08F4B1B686422B7
:1018B00002FB03F30221184600F01AF98A4B1B6859
:1018C000864A136000210120FFF74EFE14E0874B8B
:1018D0001B68642202FB03F30221184600F008F99A
:1018E000824B1B687D4A136000210220FFF73CFEFB
:1018F00002E000BF00E000BF774BDB78012B40D156
:10190000774B5B78032B2AD0032B3CDC012B02D0D6
:10191000022B12D037E0734B1B68642202FB03F3E7
:101920000321184600F0E4F86E4B1B686B4A5360C5
:1019300001210320FFF718FE26E06B4B1B68642291
:1019400002FB03F30321184600F0D2F8664B1B6834
:10195000624A536001210120FFF706FE14E0634B49
:101960001B68642202FB03F30321184600F0C0F851
:101970005E4B1B68594A536001210220FFF7F4FDBA
:1019800002E000BF00E000BF0020FFF713F90346AC
:10199000002B00F096800120FFF7A2FE91E04E4B55
:1019A0005B78012B20D14E4B1B78002B02D0012BF2
:1019B0000DD01AE00121192000F09AF80021012031
:1019C000FFF7D2FD01210120FFF7CEFD0DE001213F
:1019D000192000F08DF800210020FFF7C5FD01213E
:1019E0000020FFF7C1FD00E000BF0020FFF7E2F894
:1019F0000346002B67D00220FFF772FE63E0364BF0
:101A00005B78012B20D1364B1B78002B02D0022BA8
:101A10000DD01AE00121192000F06AF800210220FF
:101A2000FFF7A2FD01210220FFF79EFD0DE001213D
:101A3000192000F05DF800210020FFF795FD01213D
:101A40000020FFF791FD00E000BF0020FFF7B2F893
:101A50000346002B39D00320FFF742FE35E01E4B32
:101A60005B78012B20D11E4B1B78002B02D0032B5F
:101A70000DD01AE00121192000F03AF800210320CE
:101A8000FFF772FD01210320FFF76EFD0DE001213C
:101A9000192000F02DF800210020FFF765FD01213D
:101AA0000020FFF761FD00E000BF0020FFF782F893
:101AB0000346002B0BD00020FFF712FE07E000BF0B
:101AC00006E000BF04E000BF02E000BF00E000BF8E
:101AD00000BF80BD1A0100206C010020FC00002026
:101AE00018010020140100200C010020100100202A
:101AF00080B483B000AF786039603B68002B0DDBA9
:101B00003B68032B0ADC7B6819B2074A3B6822F862
:101B10001310064A3B68134400221A7000BF0C37AA
:101B2000BD4680BC704700BF1C0100206C01002036
:101B300080B483B000AF00237B601FE0144A7B6851
:101B400032F91330002B16DD114A7B6832F913305D
:101B50009BB2013B9BB219B20D4A7B6822F813106D
:101B60000B4A7B6832F91330002B04DC094A7B688E
:101B7000134401221A707B6801337B607B68032B5E
:101B8000DCDD00BF00BF0C37BD4680BC704700BF26
:101B90001C0100206C01002080B485B000AF154B03
:101BA0009B69144A43F001039361124B9B6903F054
:101BB0000103BB60BB680F4BDB690E4A43F08053E7
:101BC000D3610C4BDB6903F080537B607B680A4B6D
:101BD0005B68FB60FB6823F0E063FB60FB6843F03D
:101BE0008063FB60044AFB68536000BF1437BD4646
:101BF00080BC7047001002400000014080B584B0F6
:101C000000AF78607B681B68B3F1804F13D10C4B39
:101C1000DB690B4A43F00103D361094BDB6903F035
:101C20000103FB60FB68002200211C2000F0A1F9E9
:101C30001C2000F0BAF900BF1037BD4680BD00BFC0
:101C40000010024080B400AFFEE780B400AFFEE7B2
:101C500080B400AFFEE780B400AFFEE780B400AF11
:101C6000FEE780B400AF00BFBD4680BC704780B4C3
:101C700000AF00BFBD4680BC704780B400AF00BF5E
:101C8000BD4680BC704780B500AF00F07FF800BF54
:101C900080BD000080B500AF024800F0C3FF00BF68
:101CA00080BD00BF2401002080B400AF00BFBD464E
:101CB00080BC7047FFF7F8FF0B480C490C4A002323
:101CC00002E0D458C4500433C4188C42F9D3094AF2
:101CD000094C002301E013600432A242FBD301F05F
:101CE000E7FAFEF789FF704700000020C0000020DF
:101CF000B0420008C000002074010020FEE7000090
:101D000080B500AF084B1B68074A43F0100313600F
:101D1000032000F023F90F2000F008F8FFF73CFF44
:101D20000023184680BD00BF0020024080B582B06D
:101D300000AF7860124B1A68124B1B7819464FF4AB
:101D40007A73B3FBF1F3B2FBF3F3184600F03BF9FF
:101D50000346002B01D001230EE07B680F2B0AD82D
:101D6000002279684FF0FF3000F003F9064A7B68E3
:101D70001360002300E0012318460837BD4680BDEC
:101D80004C000020540000205000002080B400AF20
:101D9000054B1B781A46054B1B681344034A136016
:101DA00000BFBD4680BC7047540000207001002079
:101DB00080B400AF024B1B681846BD4680BC70471C
:101DC0007001002080B485B000AF78607B6803F0BC
:101DD0000703FB600C4BDB68BB60BA684FF6FF0380
:101DE0001340BB60FB681A02BB68134343F0BF6338
:101DF00043F40033BB60044ABB68D36000BF1437B0
:101E0000BD4680BC704700BF00ED00E080B400AF6D
:101E1000044BDB681B0A03F007031846BD4680BC71
:101E2000704700BF00ED00E080B483B000AF034610
:101E3000FB7197F90730002B0BDBFB7903F01F02D6
:101E4000064997F907305B09012000FA02F241F8D0
:101E5000232000BF0C37BD4680BC704700E100E086
:101E600080B483B000AF03463960FB7197F9073047
:101E7000002B0ADB3B68DAB20C4997F907301201F4
:101E8000D2B20B4483F800230AE03B68DAB2084977
:101E9000FB7903F00F03043B1201D2B20B441A7614
:101EA00000BF0C37BD4680BC704700BF00E100E0BA
:101EB00000ED00E080B489B000AFF860B9607A60EE
:101EC000FB6803F00703FB61FB69C3F10703042B05
:101ED00028BF0423BB61FB690433062B02D9FB69CD
:101EE000033B00E000237B614FF0FF32BB6902FA45
:101EF00003F3DA43BB681A407B699A404FF0FF3125
:101F00007B6901FA03F3D9437B680B4013431846FE
:101F10002437BD4680BC704780B582B000AF786082
:101F20007B68013BB3F1807F01D301230FE00A4AB4
:101F30007B68013B53600F214FF0FF30FFF790FFAC
:101F4000054B00229A60044B07221A6000231846B2
:101F50000837BD4680BD00BF10E000E080B582B00C
:101F600000AF78607868FFF72DFF00BF0837BD46E7
:101F700080BD80B586B000AF0346B9607A60FB7360
:101F800000237B61FFF742FF78617A68B96878695E
:101F9000FFF790FF024697F90F3011461846FFF7FA
:101FA0005FFF00BF1837BD4680BD80B582B000AF6F
:101FB0000346FB7197F907301846FFF735FF00BF5E
:101FC0000837BD4680BD80B582B000AF78607868C4
:101FD000FFF7A2FF034618460837BD4680BD000044
:101FE00080B48BB000AF7860396000237B6200233F
:101FF0003B6248E101227B6A02FA03F3FB613B6822
:102000001B68FA691340BB61BA69FB699A4240F0E8
:1020100037813B685B68A34A93425ED0A14A9342F2
:1020200075D8A14A934258D09F4A93426FD89F4A8D
:10203000934252D09D4A934269D89D4A93424CD0D4
:102040009B4A934263D89B4A934246D0994A934213
:102050005DD8122B2AD8122B59D801A252F823F09E
:10206000DB200008B5200008C7200008092100086F
:102070000F2100080F2100080F2100080F21000880
:102080000F2100080F2100080F2100080F21000870
:102090000F2100080F2100080F2100080F21000860
:1020A0000F210008BD200008D1200008824A934279
:1020B00013D02CE03B68DB683B6229E03B68DB68BF
:1020C00004333B6224E03B68DB6808333B621FE07B
:1020D0003B68DB680C333B621AE03B689B68002B73
:1020E00002D104233B6213E03B689B68012B05D1BE
:1020F00008233B627B68FA691A6109E008233B62A6
:102100007B68FA695A6103E000233B6200E000BF8C
:10211000BB69FF2B01D87B6801E07B6804337B61DE
:10212000BB69FF2B02D87B6A9B0002E07B6A083BFD
:102130009B003B617B691A680F213B6901FA03F33D
:10214000DB431A40396A3B6901FA03F31A437B699E
:102150001A603B685B6803F08053002B00F09080AE
:10216000564B9B69554A43F001039361534B9B695E
:1021700003F00103BB60BB68514A7B6A9B080233D2
:1021800052F82330FB607B6A03F003039B000F22AD
:1021900002FA03F3DB43FA681340FB607B68494AA9
:1021A00093420DD07B68484A934207D07B68474AE8
:1021B000934201D1022304E0032302E0012300E063
:1021C00000237A6A02F0030292009340FA681343F4
:1021D000FB603B497B6A9B080233FA6841F8232085
:1021E0003B685B6803F48013002B06D0384B9A6879
:1021F0003749BB6913438B6006E0354B9A68BB696E
:10220000DB43334913408B603B685B6803F4001386
:10221000002B06D02E4BDA682D49BB691343CB60E7
:1022200006E02B4BDA68BB69DB4329491340CB60DE
:102230003B685B6803F40033002B06D0244B5A68DC
:102240002349BB6913434B6006E0214B5A68BB69C5
:10225000DB431F4913404B603B685B6803F48033EA
:10226000002B06D01A4B1A681949BB6913430B603F
:1022700006E0174B1A68BB69DB43154913400B6036
:102280007B6A01337B623B681A687B6A22FA03F33C
:10229000002B7FF4AFAE00BF00BF2C37BD4680BC23
:1022A000704700BF00003210000031100000221003
:1022B0000000211000001210000011100010024058
:1022C0000000014000080140000C014000100140E6
:1022D0000004014080B485B000AF78600B467B807D
:1022E0007B689A687B881340002B02D00123FB7324
:1022F00001E00023FB73FB7B18461437BD4680BC0E
:10230000704780B483B000AF78600B467B80134683
:102310007B707B78002B03D07A887B681A6103E09E
:102320007B881A047B681A6100BF0C37BD4680BCED
:102330007047000080B586B000AF78607B68002BE6
:1023400001D101236CE27B681B6803F00103002BC1
:1023500000F08780924B5B6803F00C03042B0CD0D9
:102360008F4B5B6803F00C03082B12D18C4B5B681E
:1023700003F48033B3F5803F0BD1894B1B6803F422
:102380000033002B6CD07B685B68002B68D1012385
:1023900046E27B685B68B3F5803F06D1804B1B68E3
:1023A0007F4A43F4803313602EE07B685B68002B28
:1023B0000CD17B4B1B687A4A23F480331360784B33
:1023C0001B68774A23F4802313601DE07B685B68F9
:1023D000B3F5A02F0CD1724B1B68714A43F48023D4
:1023E00013606F4B1B686E4A43F4803313600BE03D
:1023F0006B4B1B686A4A23F480331360684B1B687D
:10240000674A23F4802313607B685B68002B13D03A
:10241000FFF7CEFC386108E0FFF7CAFC02463B69D3
:10242000D31A642B01D90323FAE15D4B1B6803F433
:102430000033002BF0D014E0FFF7BAFC386108E05D
:10244000FFF7B6FC02463B69D31A642B01D903237C
:10245000E6E1534B1B6803F40033002BF0D100E09E
:1024600000BF7B681B6803F00203002B63D04C4B5A
:102470005B6803F00C03002B0BD0494B5B6803F047
:102480000C03082B1CD1464B5B6803F48033002BF4
:1024900016D1434B1B6803F00203002B05D07B6869
:1024A0001B69012B01D00123BAE13D4B1B6823F0CE
:1024B000F8027B685B69DB00394913430B603AE043
:1024C0007B681B69002B20D0364B01221A60FFF776
:1024D0006FFC386108E0FFF76BFC02463B69D31ADA
:1024E000022B01D903239BE12D4B1B6803F0020350
:1024F000002BF0D02A4B1B6823F0F8027B685B6945
:10250000DB00274913430B6015E0264B00221A60BD
:10251000FFF74EFC386108E0FFF74AFC02463B69D2
:10252000D31A022B01D903237AE11D4B1B6803F058
:102530000203002BF0D17B681B6803F00803002B1B
:102540003AD07B689B69002B19D0174B01221A6087
:10255000FFF72EFC386108E0FFF72AFC02463B69D2
:10256000D31A022B01D903235AE10D4B5B6A03F006
:102570000203002BF0D0012000F09AFA1CE00A4B75
:1025800000221A60FFF714FC38610FE0FFF710FC1F
:1025900002463B69D31A022B08D9032340E100BF4E
:1025A0000010024000004242800442429E4B5B6A9F
:1025B00003F00203002BE9D17B681B6803F00403DE
:1025C000002B00F0A6800023FB75974BDB6903F01E
:1025D0008053002B0DD1944BDB69934A43F0805319
:1025E000D361914BDB6903F08053BB60BB6801236F
:1025F000FB758E4B1B6803F48073002B18D18B4B3B
:102600001B688A4A43F480731360FFF7D1FB38617B
:1026100008E0FFF7CDFB02463B69D31A642B01D9D2
:102620000323FDE0814B1B6803F48073002BF0D083
:102630007B68DB68012B06D17B4B1B6A7A4A43F02F
:10264000010313622DE07B68DB68002B0CD1764B15
:102650001B6A754A23F001031362734B1B6A724AAB
:1026600023F0040313621CE07B68DB68052B0CD1AC
:102670006D4B1B6A6C4A43F0040313626A4B1B6A7E
:10268000694A43F0010313620BE0674B1B6A664A19
:1026900023F001031362644B1B6A634A23F00403B3
:1026A00013627B68DB68002B15D0FFF781FB386174
:1026B0000AE0FFF77DFB02463B69D31A41F28832FC
:1026C000934201D90323ABE0574B1B6A03F002038B
:1026D000002BEED014E0FFF76BFB38610AE0FFF748
:1026E00067FB02463B69D31A41F28832934201D913
:1026F000032395E04C4B1B6A03F00203002BEED141
:10270000FB7D012B05D1484BDB69474A23F0805301
:10271000D3617B68DB69002B00F08180424B5B68F2
:1027200003F00C03082B61D07B68DB69022B46D1D8
:102730003F4B00221A60FFF73BFB386108E0FFF7D0
:1027400037FB02463B69D31A022B01D9032367E00A
:10275000354B1B6803F00073002BF0D17B681B6ABC
:10276000B3F5803F08D1304B5B6823F400327B68BF
:102770009B682D4913434B602B4B5B6823F4741209
:102780007B68196A7B685B6A0B43274913434B607C
:10279000274B01221A60FFF70BFB386108E0FFF7B7
:1027A00007FB02463B69D31A022B01D9032337E00A
:1027B0001D4B1B6803F00073002BF0D02FE01C4B67
:1027C00000221A60FFF7F4FA386108E0FFF7F0FA28
:1027D00002463B69D31A022B01D9032320E0124B96
:1027E0001B6803F00073002BF0D118E07B68DB69F5
:1027F000012B01D1012313E00B4B5B68FB60FB68ED
:1028000003F480327B681B6A9A4206D1FB6803F4AA
:1028100070127B685B6A9A4201D0012300E00023BA
:1028200018461837BD4680BD0010024000700040B9
:102830006000424280B584B000AF786039607B6848
:10284000002B01D10123D0E06A4B1B6803F0070382
:102850003A689A4210D9674B1B6823F00702654912
:102860003B6813430B60634B1B6803F007033A6834
:102870009A4201D00123B8E07B681B6803F0020391
:10288000002B20D07B681B6803F00403002B05D0CD
:10289000594B5B68584A43F4E06353607B681B689C
:1028A00003F00803002B05D0534B5B68524A43F4F6
:1028B00060535360504B5B6823F0F0027B689B6869
:1028C0004D4913434B607B681B6803F00103002BE9
:1028D00040D07B685B68012B07D1474B1B6803F432
:1028E0000033002B15D101237FE07B685B68022B4E
:1028F00007D1414B1B6803F00073002B09D1012362
:1029000073E03D4B1B6803F00203002B01D1012350
:102910006BE0394B5B6823F003027B685B683649E8
:1029200013434B60FFF744FAF8600AE0FFF740FA00
:102930000246FB68D31A41F28832934201D903233D
:1029400053E02D4B5B6803F00C027B685B689B00D7
:102950009A42EBD1274B1B6803F007033A689A426F
:1029600010D2244B1B6823F0070222493B68134313
:102970000B60204B1B6803F007033A689A4201D0B2
:10298000012332E07B681B6803F00403002B08D0AE
:10299000194B5B6823F4E0627B68DB6816491343DC
:1029A0004B607B681B6803F00803002B09D0124BB7
:1029B0005B6823F460527B681B69DB000E4913439C
:1029C0004B6000F021F802460B4B5B681B0903F0DB
:1029D0000F030A49CB5C22FA03F3094A1360094B3F
:1029E0001B681846FFF7A2F9002318461037BD46AA
:1029F00080BD00BF0020024000100240404200089D
:102A00004C0000205000002080B487B000AF0023AD
:102A1000FB600023BB6000237B6100237B600023FD
:102A20003B611E4B5B68FB60FB6803F00C03042BEF
:102A300002D0082B03D027E0194B3B6127E0FB684D
:102A40009B0C03F00F03174AD35C7B60FB6803F415
:102A50008033002B10D0114B5B685B0C03F001033B
:102A6000114AD35CBB607B680D4A02FB03F2BB6872
:102A7000B2FBF3F37B6104E07B680C4A02FB03F3D7
:102A80007B617B693B6102E0054B3B6100BF3B69B9
:102A900018461C37BD4680BC704700BF001002407E
:102AA00000127A00504200086042000800093D0010
:102AB00080B485B000AF78600A4B1B680A4AA2FB5D
:102AC00003235B0A7A6802FB03F3FB6000BFFB6829
:102AD0005A1EFA60002BF9D100BF00BF1437BD4663
:102AE00080BC70474C000020D34D621080B582B08E
:102AF00000AF78607B68002B01D1012341E07B6847
:102B000093F83D30DBB2002B06D17B68002283F8BE
:102B10003C207868FFF772F87B68022283F83D203A
:102B20007B681A687B6804331946104600F056FA31
:102B30007B68012283F846207B68012283F83E20CF
:102B40007B68012283F83F207B68012283F84020C4
:102B50007B68012283F841207B68012283F84220B0
:102B60007B68012283F843207B68012283F844209C
:102B70007B68012283F845207B68012283F83D2091
:102B8000002318460837BD4680BD000080B485B0DC
:102B900000AF78607B6893F83D30DBB2012B01D049
:102BA000012335E07B68022283F83D207B681B68A7
:102BB000DA687B681B6842F00102DA607B681B6898
:102BC000164A934209D07B681B68B3F1804F04D04A
:102BD0007B681B68124A934211D17B681B689B6813
:102BE00003F00703FB60FB68062B10D07B681B68B3
:102BF0001A687B681B6842F001021A6007E07B6874
:102C00001B681A687B681B6842F001021A60002387
:102C100018461437BD4680BC704700BF002C0140E9
:102C20000004004080B584B000AF78607B681B680A
:102C3000DB68FB607B681B681B69BB60BB6803F0DB
:102C40000203002B20D0FB6803F00203002B1BD0F3
:102C50007B681B686FF002021A617B6801221A7799
:102C60007B681B689B6903F00303002B03D0786823
:102C700000F098F905E0786800F08BF9786800F0CA
:102C80009AF97B6800221A77BB6803F00403002BD3
:102C900020D0FB6803F00403002B1BD07B681B686B
:102CA0006FF004021A617B6802221A777B681B6846
:102CB0009B6903F44073002B03D0786800F072F92D
:102CC00005E0786800F065F9786800F074F97B68D1
:102CD00000221A77BB6803F00803002B20D0FB68A2
:102CE00003F00803002B1BD07B681B686FF0080201
:102CF0001A617B6804221A777B681B68DB6903F022
:102D00000303002B03D0786800F04CF905E07868E5
:102D100000F03FF9786800F04EF97B6800221A77DE
:102D2000BB6803F01003002B20D0FB6803F01003F6
:102D3000002B1BD07B681B686FF010021A617B6848
:102D400008221A777B681B68DB6903F44073002B49
:102D500003D0786800F026F905E0786800F019F9EA
:102D6000786800F028F97B6800221A77BB6803F0C6
:102D70000103002B0CD0FB6803F00103002B07D0EC
:102D80007B681B686FF001021A617868FEF73AF8F9
:102D9000BB6803F08003002B0CD0FB6803F08003BA
:102DA000002B07D07B681B686FF080021A6178687F
:102DB00000F06FFABB6803F04003002B0CD0FB68F7
:102DC00003F04003002B07D07B681B686FF04002C4
:102DD0001A61786800F0F8F8BB6803F02003002B54
:102DE0000CD0FB6803F02003002B07D07B681B6826
:102DF0006FF020021A61786800F042FA00BF1037C5
:102E0000BD4680BD80B584B000AF786039600023D6
:102E1000FB737B6893F83C30012B01D10223B4E0B3
:102E20007B68012283F83C207B68022283F83D20E6
:102E30007B681B689B68BB60BB6823F07703BB6043
:102E4000BB6823F47F43BB607B681B68BA689A60E9
:102E50003B681B68B3F5005F3ED0B3F5005F00F23E
:102E60008780B3F5805F00F08680B3F5805F7FD800
:102E7000702B1AD0702B7BD8602B50D0602B77D85A
:102E8000502B3CD0502B73D8402B58D0402B6FD8B0
:102E9000302B64D0302B6BD8202B60D0202B67D800
:102EA000002B5CD0102B5AD062E07B6818683B681E
:102EB00099683B685A683B68DB6800F06AF97B6890
:102EC0001B689B68BB60BB6843F07703BB607B6893
:102ED0001B68BA689A604FE07B6818683B6899681D
:102EE0003B685A683B68DB6800F053F97B681B68F5
:102EF0009A687B681B6842F480429A603CE07B6879
:102F000018683B6859683B68DB681A4600F0CAF8E5
:102F10007B681B685021184600F021F92CE07B6883
:102F200018683B6859683B68DB681A4600F0E8F8A7
:102F30007B681B686021184600F011F91CE07B6873
:102F400018683B6859683B68DB681A4600F0AAF8C5
:102F50007B681B684021184600F001F90CE07B6893
:102F60001A683B681B681946104600F0F8F803E041
:102F70000123FB7300E000BF7B68012283F83D2042
:102F80007B68002283F83C20FB7B18461037BD4647
:102F900080BD80B483B000AF786000BF0C37BD4601
:102FA00080BC704780B483B000AF786000BF0C373E
:102FB000BD4680BC704780B483B000AF786000BF6E
:102FC0000C37BD4680BC704780B483B000AF7860DA
:102FD00000BF0C37BD4680BC7047000080B485B090
:102FE00000AF786039607B681B68FB607B682B4AA8
:102FF000934207D07B68B3F1804F03D07B68284AA7
:10300000934208D1FB6823F07003FB603B685B6868
:10301000FA681343FB607B68204A934207D07B68C1
:10302000B3F1804F03D07B681D4A934208D1FB68FF
:1030300023F44073FB603B68DB68FA681343FB6072
:10304000FB6823F080023B685B691343FB607B688D
:10305000FA681A603B689A687B68DA623B681A68AB
:103060007B689A627B680D4A934203D13B681A6978
:103070007B681A637B6801225A617B681B6903F0D5
:103080000103002B05D07B681B6923F001027B68DC
:103090001A6100BF1437BD4680BC7047002C014048
:1030A0000004004080B487B000AFF860B9607A6077
:1030B000FB681B6A7B61FB681B6A23F00102FB68EB
:1030C0001A62FB689B693B613B6923F0F0033B613B
:1030D0007B681B013A6913433B617B6923F00A0358
:1030E0007B617A69BB6813437B61FB683A699A61CB
:1030F000FB687A691A6200BF1C37BD4680BC704706
:1031000080B487B000AFF860B9607A60FB681B6A72
:103110007B61FB681B6A23F01002FB681A62FB6884
:103120009B693B613B6923F470433B617B681B03F4
:103130003A6913433B617B6923F0A0037B61BB6861
:103140001B017A6913437B61FB683A699A61FB68EA
:103150007A691A6200BF1C37BD4680BC704780B4D4
:1031600085B000AF786039607B689B68FB60FB6866
:1031700023F07003FB603A68FB68134343F00703D6
:10318000FB607B68FA689A6000BF1437BD4680BC5C
:10319000704780B487B000AFF860B9607A603B6078
:1031A000FB689B687B617B6923F47F437B613B68A1
:1031B0001A027B681A43BB6813437A6913437B6125
:1031C000FB687A699A6000BF1C37BD4680BC7047B7
:1031D00080B485B000AF786039607B6893F83C308C
:1031E000012B01D1022341E07B68012283F83C20BE
:1031F0007B68022283F83D207B681B685B68FB606C
:103200007B681B689B68BB60FB6823F07003FB60F6
:103210003B681B68FA681343FB607B681B68FA68AD
:103220005A607B681B68144A934209D07B681B680C
:10323000B3F1804F04D07B681B68104A93420CD1D5
:10324000BB6823F08003BB603B685B68BA681343CC
:10325000BB607B681B68BA689A607B68012283F850
:103260003D207B68002283F83C2000231846143759
:10327000BD4680BC704700BF002C014000040040E8
:1032800080B483B000AF786000BF0C37BD4680BC0F
:10329000704780B483B000AF786000BF0C37BD4684
:1032A00080BC7047014B1868704700BF5800002071
:1032B00070B500260C4D0D4C641BA410A64209D11C
:1032C00000F0B0FF00260A4D0A4C641BA410A64271
:1032D00005D170BD55F8043B98470136EEE755F827
:1032E000043B98470136F2E7A8420008A8420008CC
:1032F000A8420008AC42000803460244934200D1B1
:10330000704703F8011BF9E72DE9F8431F46804693
:103310008946164600F0A4F84D4B044693F9003058
:103320000D46013315D032463B4630463946FDF74F
:1033300065FB70B942464B4640464946FDF75EFB89
:103340000022002348B130463946FDF725FB00280E
:103350007BD120462946BDE8F88340464946FDF723
:103360001BFBE0B10022002330463946FDF714FB79
:1033700000286AD13046394600F037FE0028E8D0F0
:103380000022002330463946FDF710FB0028E0D02C
:10339000FFF788FF2123002403602E4DD9E7204644
:1033A000294600F022FEA8BB4046494600F01DFE1B
:1033B00080B33046394600F018FE58B322462B46FB
:1033C00020462946FDF71AFB60B1FFF76BFF21236A
:1033D00000220360002310461946FDF79FF90446BA
:1033E0000D46B6E7FFF75EFF222300220360494641
:1033F00000234046FDF7DAFA002448B1304639464A
:1034000000F000FE32463B46FDF7C6FA0028C4D065
:10341000114D9EE70022002320462946FDF7BCFA05
:10342000002896D04046494600F0DFFD002890D0A5
:103430003046394600F0D9FD00288AD0FFF732FF28
:10344000222300240025036083E70024034D80E746
:10345000BC0000200000F0FF0000F07F0000F03F03
:103460002DE9F04F93B0CDE90223DDE9022626F0E5
:10347000004555EA02030746884600F0BF847E4BAC
:1034800021F000449C428946824609DC03D178B988
:10349000A54202DD0CE09D4202DC9D420ED16AB1E4
:1034A00004F1404404F5801454EA0A0300F0A684B1
:1034B000724813B0BDE8F04F00F09EBDB9F1000FA7
:1034C00039DA6F4B9D4254DCA3F154739D4240F3B3
:1034D000A6842B15A3F2FF33142B0FDDC3F13403A5
:1034E00022FA03F101FA03F3934240F0988401F0C9
:1034F0000101C1F10203009382B15EE0002A5AD1BA
:10350000C3F1140345FA03F101FA03F3AB4240F0AF
:10351000838401F00101C1F102030093594B9D42E4
:1035200030D1002E80F274843A464346002055493B
:10353000FDF7F4F82FE000230093002A3DD14E4B15
:103540009D42EBD104F1404303F5801353EA0A0393
:1035500000F054844C4B9C420DDD002E80F25484CC
:103560004FF0000B4FF0000C5846614613B0BDE819
:10357000F08F0223E0E7002EF2DADDE902B303F177
:10358000004CF1E7B6F1804F08D13A464346384641
:103590004146FCF799FF83468C46E5E73B4B9E424C
:1035A0000BD1B9F1000F08DB3846414613B0BDE836
:1035B000F04F00F06BBC002300933846414600F00A
:1035C00011FD83468C46BAF1000F29D124B12D4B51
:1035D00029F040429A4223D1002E07DA5A46634628
:1035E00000202849FDF79AF883468C46B9F1000F70
:1035F000BADA009B04F1404404F58014234308D157
:103600005A46634658466146FCF7A6FD02460B46FD
:103610008EE7009B012BA7D10CF100439C46A3E74A
:103620004FEAD973013B0C930C9A009B134304D1CE
:103630003A46434638464146E6E7154B9D4240F33D
:10364000F98003F104739D420F4B09DD9C420CDCB1
:10365000002E85DA06A3D3E900231046194698E721
:103660009C42F5DB074B9C4214DD002EF2DC77E731
:103670009C7500883CE4377E0000F07F62420008C1
:10368000FFFF3F430000F03FFFFFEF3F0000E03F40
:103690000000E041614600225846614BFCF75CFDAA
:1036A00055A3D3E9002304460D46FCF70DFF54A3B0
:1036B000D3E9002306460F4620462946FCF704FFBF
:1036C000002282468B4620462946564BFCF7FCFEDC
:1036D00002460B464CA1D1E90001FCF73DFD224614
:1036E0002B46FCF7F1FE02460B4600204E49FCF744
:1036F00033FD22462B468046894620462946FCF764
:10370000E3FE02460B4640464946FCF7DDFE40A379
:10371000D3E90023FCF7D8FE02460B465046594633
:10372000FCF71AFD4FF0000A02460B4604460D4610
:1037300030463946FCF712FD32463B4650468B4632
:10374000FCF70AFD02460B4620462946FCF704FD1D
:10375000DDE90267009B0C9A013B13434FF0000622
:103760004FF000020CBF314B2D4B04460D46DDE9F6
:103770000201CDE9002332463B46FCF7EDFC524600
:103780005B46FCF7A1FEDDE9022380468946204620
:103790002946FCF799FE02460B4640464946FCF78F
:1037A000DDFC32463B468046894650465946FCF78A
:1037B0008BFE04460D460B46024649464046CDE97F
:1037C0000245FCF7CBFC1A4B824699420F460E4647
:1037D00040F3ED8201F13F4303F5E003034300F0C2
:1037E000E7810DA3D3E90023DDE90001FCF76CFEBE
:1037F00009A3D3E90023CCE6000000604715F73F9A
:1038000044DF5DF80BAE543E555555555555D53FE3
:10381000FE822B654715F73F9C7500883CE4377E98
:103820000000F03F0000D03F0000E03F0000F0BF8C
:10383000FFFF8F40D44B002209EA030343B95846E7
:103840006146D24BFCF740FE6FF0340283460C46D3
:103850002315A3F2FF3313440B93CD4BC4F313048E
:1038600044F07F559C4245F4401508DDC94B9C420D
:1038700040F39C810B9BA5F5801501330B9300262B
:10388000F3000D93C44B584603EBC603D3E9003451
:1038900029461A46CDE908342346FCF75DFCDA4692
:1038A0002B465246CDE90E01DDE90801FCF756FC36
:1038B00002460B460020B949FCF730FF02460B4692
:1038C000CDE91001DDE90E01FCF7FEFDCDE90601B1
:1038D000DDE90634CDE9043400230022AB466D1047
:1038E00045F00055049305F50025DDE9048905EB55
:1038F00086434046494614461D46FCF7E5FD024610
:103900000B46DDE90E01FCF727FCDDE9082306463E
:103910000F4620462946FCF71FFC02460B46504640
:103920005946FCF719FC42464B46FCF7CDFD0246D2
:103930000B4630463946FCF70FFCDDE91023FCF757
:10394000C3FDDDE90623CDE9080110461946FCF761
:10395000BBFD7BA3D3E9002304460D46FCF7B4FD71
:1039600079A3D3E90023FCF7F9FB22462B46FCF7A9
:10397000ABFD77A3D3E90023FCF7F0FB22462B46EF
:10398000FCF7A2FD74A3D3E90023FCF7E7FB224672
:103990002B46FCF799FD72A3D3E90023FCF7DEFB6D
:1039A00022462B46FCF790FD6FA3D3E90023FCF7DA
:1039B000D5FB224606460F462B4620462946FCF7F5
:1039C00083FD02460B4630463946FCF77DFD044632
:1039D0000D46DDE9060142464B46FCF7BFFBDDE93B
:1039E0000823FCF771FD22462B46FCF7B7FB424645
:1039F00006460F464B4640464946FCF765FD002209
:103A0000674B82468B46FCF7A9FB32463B46FCF7E8
:103A1000A5FB049C0D4622460B4640464946FCF752
:103A200053FD002280468946204629465C4BFCF720
:103A300093FB52465B46FCF78FFB02460B46304633
:103A40003946FCF789FBDDE90623FCF73DFD2246FC
:103A500006460F46DDE908012B46FCF735FD024618
:103A60000B4630463946FCF779FB06460F460246C0
:103A70000B4640464946FCF771FB3DA3D3E90023C2
:103A8000049C0D462046FCF71FFD42464B46CDE9FF
:103A9000060120462946FCF75FFB02460B463046EE
:103AA0003946FCF759FB34A3D3E90023FCF70CFD9E
:103AB00033A3D3E9002306460F4620462946FCF7E8
:103AC00003FD02460B4630463946FCF747FB0D9A8C
:103AD000344B1344D3E90023FCF740FB80460B989A
:103AE0008946FCF787FC04460D460D9A2E4BDDE90E
:103AF00006011344D3E9006742464B46FCF72EFB10
:103B000032463B46FCF72AFB22462B46FCF726FBB7
:103B1000DDF810A022462B4650468B46FCF71CFBD6
:103B200032463B46FCF718FBDDE90623FCF714FBA5
:103B300002460B464046494608E600BFAFF3008008
:103B4000EF4E454A287ECA3F65DBC9934A86CD3F82
:103B500001411DA96074D13F4D268F515555D53F68
:103B6000FFAB6FDBB66DDB3F033333333333E33F00
:103B7000000000E009C7EE3FFD033ADC09C7EE3F55
:103B8000F5015B14E02F3EBE0000F07F00004043D3
:103B90008E98030079B60B00684200080000F03FE1
:103BA000000008408842000878420008012667E6C5
:103BB0009DA3D3E9002340464946FCF7CFFA2246AD
:103BC000CDE904012B4650463946FCF7C5FA0246BA
:103BD0000B46DDE90401FCF707FF00287FF401AE86
:103BE000A54A26F00043934240F303814FF4801A24
:103BF00000201B15A3F2FE334AFA03F33344C3F348
:103C00000A529E4FA2F2FF321741C3F3130A23EA6E
:103C10000701C2F114024AF4801A0B464AFA02FA6A
:103C2000002E024629462046B8BFCAF1000AFCF71A
:103C300093FACDE90201DDE90201002442464B4638
:103C4000FCF78CFA7AA3D3E9002320460D46FCF753
:103C50003BFCDDE9022306460F4620462946FCF7D9
:103C60007BFA02460B4640464946FCF775FA72A3BA
:103C7000D3E90023FCF728FC71A3D3E90023804695
:103C8000894620462946FCF71FFC02460B46404663
:103C90004946FCF763FA04460D4602460B46304699
:103CA0003946FCF75BFA32463B4680468946FCF7CC
:103CB00053FA02460B4620462946FCF74DFA424687
:103CC00006460F464B4640464946FCF7FDFB5EA3C1
:103CD000D3E9002304460D46FCF7F6FB5CA3D3E9C9
:103CE0000023FCF739FA22462B46FCF7EDFB5AA3DA
:103CF000D3E90023FCF732FA22462B46FCF7E4FB1B
:103D000057A3D3E90023FCF727FA22462B46FCF7FA
:103D1000DBFB55A3D3E90023FCF720FA22462B4610
:103D2000FCF7D2FB02460B4640464946FCF714FA24
:103D300004460D4602460B4640464946FCF7C4FB86
:103D40000022CDE902014FF0804320462946FCF7CE
:103D500003FA02460B46DDE90201FCF7DFFC3246BE
:103D600004460D463B4640464946FCF7ADFB32460D
:103D70003B46FCF7F3F902460B4620462946FCF782
:103D8000EBF942464B46FCF7E7F902460B460020AA
:103D90003B49FCF7E1F901EB0A54B4F5801F2BDA3B
:103DA000524600F0B9F9DDE90023FFF7F2BB354BCD
:103DB00021F000479F427FF713AF334B0B4403437F
:103DC0000BD02BA3D3E90023DDE90001FCF77CFB3A
:103DD00027A3D3E90023FFF7DCBB22462B46FCF7E1
:103DE000BBF942464B46FCF7F5FD00283FF4F8AE20
:103DF000E7E74FF0000A1EE72146D4E74FF0000B3B
:103E0000DFF87CC0FFF7B0BBDDE902BCFFF7ACBB5D
:103E100038464146FFF7BFBB0092FFF77FBB002348
:103E2000FFF769BBAFF30080FE822B654715973C17
:103E300000000000432EE63FEF39FAFE422EE63F37
:103E4000396CA80C615C20BED0A4BE726937663E96
:103E5000F16BD2C541BDBB3E2CDE25AF6A56113F8A
:103E600093BDBE166CC1663F3E5555555555C53F71
:103E700059F3F8C21F6EA5010000E03FFFFF0F00DD
:103E80000000F03FFFCB904000346F3FDFF850C19F
:103E90002DE9F0413CEA010C0B4606460D460A4668
:103EA000074604460ED10246FCF70EFB02460B46BF
:103EB00030462946FCF752F906460D46304629465B
:103EC000BDE8F08100290DDC21F0004C5CEA070719
:103ED000F4D039B10246FCF73FF902460B46FCF735
:103EE0001DFCE9E7121574D00020D507C3F31303B6
:103EF00043F480115EBFE30F640003EB4101E30F65
:103F0000A2F2FF3603EB4103162501464FF40012DF
:103F1000761064008F189F42DEBFDB1BB918801833
:103F20005B00013D03EBD4734FEA52024FEA4404B5
:103F3000F0D12A464FF0200E4FF000478B4207EB9E
:103F4000050C02DC13D1A44511D8BCF1000F0CEB19
:103F5000070543DA002D41DB01F101085B1A4146F8
:103F6000A44588BF03F1FF33A4EB0C043A445B0083
:103F7000BEF1010E03EBD4734FEA57074FEA440436
:103F8000DCD1234306D0541C0BBF724601320130F2
:103F900022F001024310C1074FEA520203F17F539E
:103FA00003F5001348BF42F00042104603EB0651F0
:103FB00082E7E30A15396405002BFAD0DE020AD540
:103FC000C2F1200024FA00F0551E944003434A1B1E
:103FD0008AE71146F0E75B000132EFE78846BDE76C
:103FE0000000F07F21F00041704741F0004000F5F3
:103FF0008010C00F7047000000200149704700BFCB
:104000000000F87FC1F30A5CF7B5ACF2FF37132F5D
:1040100002460B460C4605464FEAD17659DC002F86
:104020002ADA21F00041014322D0C3F313010143F6
:104030004D420D4336495C0C2D0B05F400256404FC
:1040400001EBC60145EA0403D1E9004520462946B3
:10405000FCF784F8CDE90001DDE900012B4622469A
:10406000FCF77AF821F0004343EAC67102460B469A
:104070001046194603B0F0BD2649394103EA010054
:104080001043F5D04B0804EA510152EA01050CD067
:1040900024EA03034FF48024132F0CBF4FF0004594
:1040A000002544FA07F743EA07041949234601EBC0
:1040B000C6062A46D6E9004520462946FCF74EF8B2
:1040C000CDE90001DDE9000122462B46FCF744F86A
:1040D000CCE7332F05DDB7F5806FC9D1FCF73EF88B
:1040E000C4E74FF0FF31ACF2134C21FA0CF1084257
:1040F000BED010EA510218BF4FF080454FEA51037D
:104100001EBF20EA030345FA0CFC43EA0C05CCE78A
:1041100098420008FFFF0F00F8B5C1F30A560446A5
:104120000D4617460B4696B921F00043034339D09C
:10413000354B0022FCF7C8F9344B04469F420D462C
:104140000FDA2DA3D3E90023FCF7BEF906E040F215
:10415000FF7296420AD10246FCF700F804460D466B
:1041600020E00B46C1F30A51A1F1360640F2FE727F
:10417000B91991420EDD22A3D3E9002305F00044D2
:1041800044F0FC4141F45F1141F41051204841F0EA
:104190003C01D9E7002908DD23F0FF4323F4E003C5
:1041A00043EA015520462946F8BD11F1350F16DACC
:1041B0004CF250339F424FEAD57308DD154C14483A
:1041C00063F3DF740EA3D3E900232146BCE7124C4E
:1041D000124863F3DF7408A3D3E90023F5E723F063
:1041E000FF43363123F4E00343EA015520462946D4
:1041F00000220B4BA8E700BF59F3F8C21F6EA501C0
:104200009C7500883CE4377E00005043B03CFFFFC3
:104210009C7500883CE4377E1F6EA50159F3F8C2F7
:104220000000903CF8B500BFF8BC08BC9E46704743
:0C423000F8B500BFF8BC08BC9E46704703
:104240000000000000000000010203040607080946
:1042500002030405060708090A0B0C0D0E0F1010C7
:104260000102000000000000000000000000F03F1C
:10427000000000000000F83F000000000000000007
:104280000000004003B8E23F000000000000000012
:1042900006D0CF43EBFD4C3E000000000000304351
:0842A00000000000000030C323
:0442A80035010008D4
:0442AC0011010008F4
:1042B00001000200040008001000200040008000FF
:1042C000BF008600DB00CF00E600ED00FD008700A8
:1042D000FF00EF00000000004000790024003000E3
:1042E000190012000200780000001000FF0000001A
:1042F00000010008000200100004002000127A00F3
:1043000010000000010000005C0000200000000020
:10431000000000000000000000000000000000009D
:10432000000000000000000000000000000000008D
:10433000000000000000000000000000000000007D
:10434000000000000000000000000000000000006D
:10435000000000000000000000000000000000005D
:10436000000000000000000000000000FF0000004E
:0400000508001CB51E
:00000001FF
